S016000044796E616D69632044657369676E2E73726563CF
S11300000C9431000C944E000C944E000C944E0051
S11300100C944E000C944E000C944E000C944E0024
S11300200C944E000C944E000C944E000C9415024B
S11300300C944E000C944E000C944E000C944E0004
S11300400C944E000C944E000C944E000C944E00F4
S11300500C944E007A017F01840189018E01930181
S1130060980111241FBECFE5D8E0DEBFCDBF10E05C
S1130070A0E6B0E0E4E4F6E002C005900D92A236FA
S1130080B107D9F720E0A2E6B0E001C01D92A8387C
S1130090B207E1F70E94A8000C9420030C9400001E
S11300A09BB382E089278BBB08959BB384E08927A7
S11300B08BBB08959BB388E089278BBB08959BB3C2
S11300C081E089278BBB8091620090916300019647
S11300D090936300809362008436910529F460E56F
S11300E070E081E00E948802809162009091630038
S11300F0883C910529F465E570E083E00E9488025C
S11301008091620090916300843F914041F420E526
S113011030E040E061E083E090E00E94BB02809127
S11301206200909163008032934029F460E570E0AE
S113013081E00E9488028091620090916300883E71
S1130140934029F46FE570E081E00E9488020895ED
S1130150D09AD19AD29AD39AD69A86E890E00E94FD
S113016028022FE530E040E061E08AE090E00E9460
S1130170BB0220E530E040E061E083E090E00E94D3
S1130180BB0225E530E040E063E084E090E00E94BB
S1130190BB022AE530E040E064E085E090E00E94A4
S11301A0BB020E944E02FDCFDC01892B09F4D7C0AB
S11301B08C91813009F445C020F0823009F487C065
S11301C0D0C013BE83B783BF83B783BF12968C910D
S11301D012978430A9F028F4813041F0823059F02C
S11301E01EC0863091F08730A9F019C081E0809359
S11301F0680080E015C082E08093680080E010C051
S113020083E08093680080E00BC084E08093680002
S113021080E006C085E08093680080E001C081E052
S113022013969C91992319F0913021F09CC099B7B1
S113023099BF089599B7916099BF9FB790689FBF80
S113024008951FBC1EBC8FB58C7F8FBD8EB5877E75
S11302508EBD8FB58F708FBD12968C91129784309E
S1130260A9F028F4813041F0823059F01EC0863064
S113027091F08730A9F019C081E08093670080E095
S113028015C082E08093670080E010C083E0809313
S1130290670080E00BC084E08093670080E006C0C4
S11302A085E08093670080E001C081E099B7937C8A
S11302B099BF13969C91992319F0913021F055C060
S11302C099B799BF089599B7946099BF089515BCDB
S11302D085B585BD85B585BD1296EC9112974E2FD7
S11302E050E0FA013197E730F10538F5E65DFF4F4C
S11302F00C941A0381E08093660080E01FC082E0C2
S11303008093660080E01AC083E08093660080E0FA
S113031015C084E08093660080E010C085E080937F
S1130320660080E00BC086E08093660080E006C033
S113033087E08093660080E001C081E098B7977FF2
S113034098BF13969C91992319F0913021F00FC016
S113035099B799BF089599B7906499BF089581E0BA
S1130360089581E0089581E0089581E0089581E091
S11303700895813089F018F0823069F139C0613014
S113038081E07807B8F5619562BF93B78091680002
S1130390892B83BF80E00895862F81958093650023
S11303A080E090E0A1E0B0E0861B970BA109B109C1
S11303B0892F9A2FAB2FBB27A7FDBA958093640092
S11303C08DBD809165008CBD9EB580916700892BA1
S11303D08EBD80E00895613081E0780768F461950E
S11303E064BD95B580916600892B85BD80E0089534
S11303F081E0089581E0089581E00895813049F015
S113040018F0823059F00FC083B7887F83BF80E033
S113041008958EB5887F8EBD80E0089585B5887F68
S113042085BD80E0089581E008951F920F920FB674
S11304300F9211248F93809160008F5F80936000EE
S113044086E082BF8F910F900FBE0F901F9018957A
S1130450CF93DF9300D000D0CDB7DEB70097A1F0E3
S113046020916A00211112C0FC0121E020936A004E
S1130470808189832A8384E08B832C83CE01019637
S11304800E94D40080E003C081E001C081E00F90AD
S11304900F900F900F90DF91CF910895DF92EF921C
S11304A0FF920F931F93CF93DF938091690088236A
S11304B039F1CEE6D0E00EE710E0DD24D394888154
S11304C08130B1F4809160009E81981789F090E0AA
S11304D069817A810E940603892B51F4EC81FD81A4
S11304E00995809160008E838D3311F4D092600061
S11304F0C017D10729F02896809169008111DFCFB8
S1130500DF91CF911F910F91FF90EF90DF900895AD
S1130510CF93DF9340916900442351F1EEE6F0E07C
S113052020E030E0D9019781981318C0C481D581A7
S1130530C617D70799F4AA0FBB1FAA0FBB1FAA0F90
S1130540BB1FA259BF4F1C9215961C921E92149762
S1130550415040936900442341F00AC02F5F3F4F4C
S1130560389623303105F1F603C080E00E94FE0185
S1130570DF91CF910895EF92FF920F931F93CF9342
S1130580DF937C0190916A009130C1F580916900FC
S11305908330A1F12115310589F1AEE6B0E0E0E048
S11305A090E0ED015C91511103C0E11101C0E92F0C
S11305B05F81561305C00C811D812017310729F076
S11305C09F5F1896933069F702C0DE9A17C098E0CF
S11305D0E902F0011124E259FF4F91E09083F28285
S11305E0E182438335832483968367838F5F80937B
S11305F069006AEF70E080E00E94B90180E0DF9159
S1130600CF911F910F91FF90EF900895AA1BBB1BF0
S113061051E107C0AA1FBB1FA617B70710F0A61BFE
S1130620B70B881F991F5A95A9F780959095BC011F
S1130630CD010895EE0FFF1F0590F491E02D09946C
S1070640F894FFCF58
S10506440100AF
S9030000FC
