S016000044796E616D69632044657369676E2E73726563CF
S11300000C9431000C9443000C9443000C94430072
S11300100C9443000C9443000C9443000C94430050
S11300200C9443000C9443000C9443000C9435024C
S11300300C9443000C9443000C9443000C94430030
S11300400C9443000C9443000C9443000C94430020
S11300500C94430078017D01820187018C01910198
S1130060960111241FBECFE5D8E0DEBFCDBF20E04E
S1130070A0E6B0E001C01D92AA38B207E1F70E94E1
S11300809D000C946B030C9400009BB382E08927C1
S11300908BBB08959BB384E089278BBB08959BB3E6
S11300A088E089278BBB08959BB381E089278BBBAC
S11300B0809160009091610001969093610080931B
S11300C060008436910529F465E470E081E00E94C3
S11300D0D0028091600090916100883C910529F4E0
S11300E06AE470E083E00E94D00280916000909105
S11300F06100843F914041F425E430E040E061E058
S113010086E090E00E940403809160009091610079
S11301108032934029F465E470E081E00E94D002CB
S11301208091600090916100883E934029F464E5D9
S113013070E081E00E94D0020895D09AD19AD29AB8
S1130140D39AD69A88E890E00E94660224E530E0CB
S113015040E061E08AE090E00E94040325E430E09E
S113016040E061E083E090E00E9404032AE430E090
S113017040E063E084E090E00E9404032FE430E078
S113018040E064E085E090E00E9404030E949C0249
S1130190FDCFDC01892B09F4E0C08C91813009F496
S11301A04EC020F0823009F490C0D9C013BE83B78A
S11301B083BF83B783BF12968C9112978430A9F0C2
S11301C028F4813041F0823059F01EC0863091F01D
S11301D08730A9F019C081E08093680080E015C0E1
S11301E082E08093680080E010C083E08093680020
S11301F080E00BC084E08093680080E006C085E066
S11302008093680080E001C081E013969C9113976D
S1130210992319F0913021F0A4C099B799BF08959A
S113022014962D913C9115973093630020936200AE
S113023099B7916099BF9FB790689FBF08951FBCFD
S11302401EBC8FB58C7F8FBD8EB5877E8EBD8FB55E
S11302508F708FBD12968C9112978430A9F028F478
S1130260813041F0823059F01EC0863091F08730E1
S1130270A9F019C081E08093670080E015C082E096
S11302808093670080E010C083E08093670080E083
S11302900BC084E08093670080E006C085E0809313
S11302A0670080E001C081E099B7937C99BF139601
S11302B09C91992319F0913021F055C099B799BFB9
S11302C0089599B7946099BF089515BC85B585BD07
S11302D085B585BD1296EC9112974E2F50E0FA0128
S11302E03197E730F10538F5E65DFF4F0C9465036F
S11302F081E08093660080E01FC082E08093660006
S113030080E01AC083E08093660080E015C084E03A
S11303108093660080E010C085E08093660080E0F2
S11303200BC086E08093660080E006C087E080937F
S1130330660080E001C081E098B7977F98BF13966C
S11303409C91992319F0913021F00FC099B799BF6E
S1130350089599B7906499BF089581E0089581E064
S1130360089581E0089581E0089581E00895813041
S113037089F018F0823069F139C0613081E0780782
S1130380B8F5619562BF93B780916800892B83BFEC
S113039080E00895862F81958093650080E090E049
S11303A0A1E0B0E0861B970BA109B109892F9A2F10
S11303B0AB2FBB27A7FDBA95809364008DBD8091B8
S11303C065008CBD9EB580916700892B8EBD80E051
S11303D00895613081E0780768F4619564BD95B54E
S11303E080916600892B85BD80E0089581E00895A1
S11303F081E0089581E00895813049F018F0823059
S113040059F00FC083B7887F83BF80E008958EB50D
S1130410887F8EBD80E0089585B5887F85BD80E0A6
S1130420089581E00895813039F018F08230C1F0E8
S11304301AC062BF80E00895609365007093640001
S11304408EB5887F8EBD809164008DBD80916500DE
S11304508CBD9EB580916700892B8EBD80E0089588
S113046064BD80E0089581E008951F920F920FB655
S11304700F9211242F933F934F935F936F937F9326
S11304808F939F93AF93BF93EF93FF93E091620099
S1130490F09163000995FF91EF91BF91AF919F9106
S11304A08F917F916F915F914F913F912F910F9019
S11304B00FBE0F901F90189566E070E080916A005F
S11304C00E9413028FEF8093690008950F931F9386
S11304D0CF93DF9300D000D000D0CDB7DEB7009724
S11304E0E9F020916C0021111BC08C0181E0809304
S11304F06C00F801908199838A8394E09B838C83B8
S11305008CE592E09E838D83CE0101960E94C90002
S1130510F801808180936A0080E003C081E001C01B
S113052084E026960FB6F894DEBF0FBECDBFDF91F0
S1130530CF911F910F910895EF92FF920F931F9304
S1130540CF93DF93809169008F3F11F580916B0009
S11305508823E1F0C0E7D0E000E810E08881813032
S113056069F48E818F5F8E8390E029813A818217AE
S1130570930721F4EC81FD8109951E82C017D107F0
S113058029F0289680916B008111E8CF10926900C0
S113059080E0DF91CF911F910F91FF90EF9008952C
S11305A090916B00992371F1E0E7F0E020E030E0F6
S11305B0D9014781481319C044815581461757070B
S11305C0A1F4AA0FBB1FAA0FBB1FAA0FBB1FA059E0
S11305D0BF4F1C9215961C921E92149791509093A3
S11305E06B00992351F080E008952F5F3F4F3896B8
S11305F023303105E9F680E0089580E00E94FC0193
S113060080E0089589E008950F931F93CF93DF93BB
S1130610FC0190916C00913079F590916B009330CE
S113062069F12115310561F1C0E7D0E070E080E0A7
S1130630DE015881511103C0711101C0782F179642
S11306405C911797561307C014960D911C9115973A
S113065020173107B9F08F5F2896833049F715C00A
S11306606AEF70E080E00E94B70180916B008F5FB9
S113067080936B0080E024C083E022C087E020C028
S113068081E01EC0DE9A80E01BC088E07802D001C1
S11306901124A059BF4F81E08C931296FC93EE93E2
S11306A0119713964C93139715963C932E93149786
S11306B016968C93169717966C939111D6CFD0CF2C
S11306C0DF91CF911F910F910895EE0FFF1F0590B9
S10D06D0F491E02D0994F894FFCF93
S9030000FC
