:100000000C9431000C944E000C944E000C944E0055
:100010000C944E000C944E000C944E000C944E0028
:100020000C944E000C944E000C944E000C944A021A
:100030000C944E000C944E000C944E000C944E0008
:100040000C944E000C944E000C944E000C944E00F8
:100050000C944E008D01920197019C01A101A60113
:10006000AB0111241FBECFE5D8E0DEBFCDBF10E04D
:10007000A0E6B0E0EEEAF7E002C005900D92A036EF
:10008000B107D9F722E0A0E6B0E001C01D92AB3283
:10009000B207E1F70E94BA000C94D5030C9400005B
:1000A0009BB382E089278BBB08959BB384E08927AB
:1000B0008BBB08959BB388E089278BBB08959BB3C6
:1000C00081E089278BBB809160009091610001964F
:1000D00090936100809360008436910529F460E577
:1000E00070E081E00E94C702809160009091610001
:1000F000883C910529F465E570E083E00E94C70221
:100100008091600090916100843F914041F420E52E
:1001100030E040E061E086E090E00E94470380919B
:100120006000909161008032934029F460E570E0B6
:1001300081E00E94C7028091600090916100883E3A
:10014000934029F46FE570E081E00E94C70280913E
:1001500060009091610065E070E00E94A703892B28
:1001600041F42AE530E040E064E085E090E00E9460
:1001700047030895D09AD19AD29AD39AD69A89E908
:1001800090E00E9489022FE530E041E061E08AE0E2
:1001900090E00E94470320E530E041E061E083E029
:1001A00090E00E94470325E530E041E063E084E011
:1001B00090E00E9447030E940B03FDCFDC01892BD6
:1001C00009F4E0C08C91813009F44EC020F08230F7
:1001D00009F490C0D9C013BE83B783BF83B783BF70
:1001E00012968C9112978430A9F028F4813041F056
:1001F000823059F01EC0863091F08730A9F019C0C6
:1002000081E08093680080E015C082E08093680000
:1002100080E010C083E08093680080E00BC084E041
:100220008093680080E006C085E08093680080E0ED
:1002300001C081E013969C911397992319F0913096
:1002400021F0A4C099B799BF089514962D913C91BF
:100250001597309363002093620099B7916099BF1E
:100260009FB790689FBF08951FBC1EBC8FB58C7F41
:100270008FBD8EB5877E8EBD8FB58F708FBD129668
:100280008C9112978430A9F028F4813041F08230AB
:1002900059F01EC0863091F08730A9F019C081E076
:1002A0008093670080E015C082E08093670080E063
:1002B00010C083E08093670080E00BC084E08093EF
:1002C000670080E006C085E08093670080E001C0A1
:1002D00081E099B7937C99BF13969C91992319F06B
:1002E000913021F055C099B799BF089599B794609E
:1002F00099BF089515BC85B585BD85B585BD129698
:10030000EC9112974E2F50E0FA013197E730F1054A
:1003100038F5E65DFF4F0C94BB0381E080936600E7
:1003200080E01FC082E08093660080E01AC083E016
:100330008093660080E015C084E08093660080E0D2
:1003400010C085E08093660080E00BC086E080935B
:10035000660080E006C087E08093660080E001C010
:1003600081E098B7977F98BF13969C91992319F0D5
:10037000913021F00FC099B799BF089599B7906453
:1003800099BF089581E0089581E0089581E008957E
:1003900081E0089581E00895813089F018F082307D
:1003A00069F139C0613081E07807B8F5619562BFC5
:1003B00093B780916800892B83BF80E00895862FD2
:1003C00081958093650080E090E0A1E0B0E0861B1D
:1003D000970BA109B109892F9A2FAB2FBB27A7FD36
:1003E000BA95809364008DBD809165008CBD9EB5EB
:1003F00080916700892B8EBD80E00895613081E097
:10040000780768F4619564BD95B580916600892B85
:1004100085BD80E0089581E0089581E0089581E040
:100420000895813049F018F0823059F00FC083B739
:10043000887F83BF80E008958EB5887F8EBD80E081
:10044000089585B5887F85BD80E0089581E0089591
:10045000813039F018F08230C1F01AC062BF80E0FC
:10046000089560936500709364008EB5887F8EBD9B
:10047000809164008DBD809165008CBD9EB580919A
:100480006700892B8EBD80E0089564BD80E00895EB
:1004900081E008951F920F920FB60F9211242F93AF
:1004A0003F934F935F936F937F938F939F93AF93FC
:1004B000BF93EF93FF93E0916200F0916300099581
:1004C000FF91EF91BF91AF919F918F917F916F912C
:1004D0005F914F913F912F910F900FBE0F901F9002
:1004E000189590916900E92FF0E0EE0FFF1FE55697
:1004F000FF4F808361839F5F90936900089566E05A
:1005000070E080916B000E9428028FEF80936A0058
:1005100008950F931F93CF93DF9300D000D000D0A6
:10052000CDB7DEB78C01892B11F180916D0081115F
:1005300018C081E080936D00F801908199838A83CF
:1005400094E09B838C838FE792E09E838D83CE0122
:1005500001960E94DE00F801808180936B0080E0AC
:100560000BC064E081E00E94710281E005C061E09F
:1005700081E00E94710281E026960FB6F894DEBFFA
:100580000FBECDBFDF91CF911F910F910895CF93F3
:10059000DF9361157105B9F1A0916C00AA2369F18F
:1005A000E1E7F0E020E030E0A9019781981318C05E
:1005B000C481D5816C177D0799F4440F551F440FF2
:1005C000551F440F551FFA01EF58FF4F1082158237
:1005D0001482A150A0936C00AA2351F080E018C0AF
:1005E0002F5F3F4F389625303105F1F680E010C07F
:1005F00080E00E94110280E00BC069E081E00E946F
:10060000710281E005C061E081E00E94710281E039
:10061000DF91CF910895EF92FF920F931F93CF93A5
:10062000DF9380916A008F3F51F580916C008823A1
:1006300021F1C1E7D0E001E910E088818130A9F41F
:100640008E818F5F8E8390E029813A818217930794
:1006500061F4EC81FD8109951E828B81811105C0B9
:100660006C817D818F810E94C702C017D10729F05C
:10067000289680916C008111E0CF10926A0080E092
:10068000DF91CF911F910F91FF90EF900895CF933D
:10069000DF93EC0180916D008130D9F580916C0081
:1006A000853089F12115310541F1E1E7F0E070E095
:1006B00090E0DF015081511103C0711101C0792F09
:1006C00017965C911797561307C014960D90BC911E
:1006D000A02D2A173B0719F19F5F3896953049F7EF
:1006E00021C06AEF70E080E00E94CC0180916C0034
:1006F0008F5F80936C0080E027C061E081E00E9402
:10070000710281E021C067E081E00E94710281E016
:100710001BC063E081E00E94710281E015C0DE9A97
:1007200080E012C098E07902F0011124EF58FF4FE9
:1007300091E09083D283C18343833583248396835E
:1007400067838111D3CFCDCFDF91CF91089597FBF0
:10075000072E16F4009407D077FD09D00E94C1033C
:1007600007FC05D03EF4909581959F4F08957095B4
:1007700061957F4F0895EE0FFF1F0590F491E02DD6
:100780000994AA1BBB1B51E107C0AA1FBB1FA617D8
:10079000B70710F0A61BB70B881F991F5A95A9F72A
:0E07A00080959095BC01CD010895F894FFCF8F
:00000001FF
